:020000040800F2
:10000000706C002045010008EF220008A3210008C1
:10001000ED220008CF02000831390008000000007E
:10002000000000000000000000000000293500086A
:10003000D102000800000000F12200082B35000862
:100040005F0100085F0100085F0100085F01000810
:100050001D030008F32200085F0100085F0100088B
:100060005F0100085F0100085F0100085F010008F0
:100070005F0100085F0100085F0100085F010008E0
:100080005F0100085F0100085F0100085F010008D0
:100090005F0100085F0100085F0100085F010008C0
:1000A0005F0100085F0100085F0100085F010008B0
:1000B0005F0100085F0100085F0100085F010008A0
:1000C0005F0100085F0100085F010008C9310008F6
:1000D0005F010008093800085F0100085F0100089F
:1000E0005F0100085F0100085F0100085F01000870
:1000F0005F0100085F0100085F0100085F01000860
:100100005F010008AD2300085F0100085F010008DF
:100110005F0100085F0100085F0100085F0100083F
:100120005F0100085F0100085F0100085F0100082F
:10013000DFF80CD000F062F800480047155C0008BA
:10014000706C00200648804706480047FEE7FEE73F
:10015000FEE7FEE7FEE7FEE7FEE7FEE7FEE7FEE777
:100160007D3500083101000840EA01039B0703D0F8
:1001700009E008C9121F08C0042AFAD203E011F8E6
:10018000013B00F8013B521EF9D27047D2B201E0A8
:1001900000F8012B491EFBD270470022F6E710B58C
:1001A00013460A4604461946FFF7F0FF204610BDE5
:1001B000421C10F8011B0029FBD1801A704703462E
:1001C00011F8012B00F8012B002AF9D118467047CD
:1001D00030B50B46014600202022012409E021FA17
:1001E00002F59D4205D303FA02F5491B04FA02F514
:1001F0002844151EA2F10102F1DC30BD064C074D6A
:1002000006E0E06840F0010394E8070098471034E6
:10021000AC42F6D3FFF790FF980E0308B80E030820
:10022000704700000146014801F0A6B908430020CC
:1002300010B5044801F0B2F9042801D0012010BD26
:10024000002010BD0843002010B500F015F801286B
:1002500001D0012010BD074801F0BAFA040006D110
:100260004FF40061034801F03FF800B1012420463B
:1002700010BD00000843002008B501208DF80000E3
:100280009DF8000008BD000038B500240093134617
:100290000A460146034801F02BFB00B10124204629
:1002A00038BD0000084300207047000038B5002426
:1002B000009313460A460146034801F01DFC00B1B5
:1002C0000124204638BD0000084300207047FEE7A7
:1002D00070477047002200F001B8000030B50E4BA7
:1002E000054601209C7B022C15D8987B00241C54C9
:1002F000987B03EB800045609D7B03F10C002A5442
:10030000987B421C9A73303008703A2048702F2036
:100310008870CC70002030BD6044002000F02EBBFF
:10032000064A0021D16106490A6942F002020A61C7
:100330004861086940F04000086170472844002087
:1003400000200240044B0022DA61044A136943F0A2
:1003500001031361018070472844002000200240FF
:1003600014480022C168CB06134904D5CA6942F07B
:100370000202CA611022C3685B0705D5CB6943F04E
:100380000103CB6142F00402C369DB0707D0CB69EC
:1003900043F00403CB61C16921F00101C161A2F501
:1003A0008071013901D0C2607047C16921F001013B
:1003B000C161704700200240284400203EB50CA0D7
:1003C00003F0B8FA01AA694612A004F020FA044624
:1003D000019800F5805041698278891E5143009848
:1003E0008900424392000CA003F0A4FA20463EBDCF
:1003F0002A2A2A2A2A2A2A2A20C9E8B1B8D0C5CF0F
:10040000A2BBF1C8A1202A2A2A2A2A2A2A2A0A0AB1
:1004100000000000313A2F002531306C75204B620E
:1004200020D7DCC7FDB6AFC6F7BFD5BCE42E0A2582
:1004300031306C75204B4220BFC9D3C32E0A0A004D
:1004400010B50446C2B01BA003F074FA0122214685
:10045000234804F02FFD234C23490222207060B171
:1004600010050860012008600A6020A003F062FA0D
:100470001B4804F0A5F942B010BD20200860C0025E
:1004800008600A601FA003F055FA40ABFF226946DE
:10049000134804F051FE2070011E04D01EA000BFBE
:1004A00003F048FAE4E722A0409903F043FA6946D2
:1004B00028A0F5E72A2A2A2A2A2A2A2A20BCB4BDFB
:1004C000ABBDF8D0D0CEC4BCFEB6C1C8A1B2E2CAA2
:1004D000D42E2E2E202A2A2A2A2A2A2A2A0A0A003A
:1004E000DC3200200B000020100C0140A3A1A3A1CE
:1004F000B4F2BFAACEC4BCFECAA7B0DCA1A30D0A49
:1005000000000000A1B7B4F2BFAACEC4BCFEB3C9BC
:10051000B9A6A1A30D0A0000A3A1A3A1CEC4BCFE4D
:10052000B6C1C8A1CAA7B0DCA3BA282564290A00AD
:10053000A1B7CEC4BCFEB6C1C8A1B3C9B9A62CB67A
:10054000C1B5BDD7D6BDDACAFDBEDDA3BA25640DDF
:100550000A000000A1B7B6C1C8A1B5C3B5C4CEC4D6
:10056000BCFECAFDBEDDCEAAA3BA0A0A2573200AC4
:100570000D0A000010B508A003F0DCF912A1134821
:10058000FFF71DFE114805F093FC11490870BDE806
:1005900010400CA003F0CEB92A2A2A2A2A2A2A2A95
:1005A00020B1E9C0FA2053504920464C4153480934
:1005B000D6D0CBF9D3D0CEC4BCFE202A2A2A2A2AF0
:1005C0002A2A2A0A0A000000313A2F0004000020DB
:1005D0000B00002038B5044615461AA003F0AAF90E
:1005E0000A222146224804F065FC224C207058B1B2
:1005F00021484FF4001101600121016002210160D6
:100600001EA003F097F938BD23A003F093F9284604
:10061000FFF7CEFD02466B462946154804F0D3FE8F
:100620002070011E06D027A003F084F9104804F0C2
:10063000C7F838BD29A0009903F07CF9294630A0FD
:10064000F2E700002A2A2A2A2A2A2A2A20BCB4BD34
:10065000ABBDF8D0D0CEC4BCFED0B4C8EBB2E2CAB9
:10066000D42E2E2E202A2A2A2A2A2A2A2A0A0A00A8
:10067000DC3200200B000020100C0140A3A1A3A13C
:10068000B4F2BFAA2FB4B4BDA8CEC4BCFECAA7B0F2
:10069000DCA1A30A0A000000A1B7B4F2BFAA2FB4DC
:1006A000B4BDA820CEC4BCFEB3C9B9A6A3ACCFF2DA
:1006B000CEC4BCFED0B4C8EBCAFDBEDDA1A30D0AFA
:1006C00000000000A3A1A3A1CEC4BCFED0B4C8EB1F
:1006D000CAA7B0DCA3BA282564290A00A1B7CEC4F2
:1006E000BCFED0B4C8EBB3C9B9A6A3ACD0B4C8EBB8
:1006F000D7D6BDDACAFDBEDDA3BA25640A00000064
:10070000A1B7CFF2CEC4BCFED0B4C8EBB5C4CAFD0D
:10071000BEDDCEAAA3BA0A0A2573200A0D0A00007C
:1007200010B501220FA1104804F092FB04460D28D9
:1007300009D0002C11D001460CA003F0FBF815A045
:1007400003F0F8F8FEE71EA003F0F4F800221146CB
:1007500004A004F0BDF8044602E025A003F0EAF886
:10076000204610BD313A2F00AC220020A3A1A3A146
:1007700053504920464C41534820B9D2D4D8CEC416
:10078000BCFECFB5CDB3CAA7B0DCA1A32825642990
:100790000A0A0000A3A1A3A1BFC9C4DCD4ADD2F250
:1007A000A3BA53504920464C41534820B3F5CABC24
:1007B000BBAFB2BBB3C9B9A6A1A30A0A000000002F
:1007C000A1B753504920464C41534820BBB9C3BB45
:1007D000D3D0CEC4BCFECFB5CDB3A3ACBCB4BDABFF
:1007E000BDF8D0D0B8F1CABDBBAF2E2E2E0A0A007C
:1007F000A1B753504920464C41534820CEC4BCFEBB
:10080000CFB5CDB3B9D2D4D8B3C9B9A6A3ACBFC9FB
:10081000D2D4BDF8D0D0B6C1D0B4B2E2CAD40A0A9C
:10082000000000002DE9F05F90F82110002402295B
:1008300003D004218163012485E001680A6822F065
:100840000E020A6001680A6822F001020A603F4E47
:100850003E4FB215DFF8F4C0DFF8F090DFF8ECA0FF
:10086000DFF8E8B0DFF8E4E00168783F1301150233
:10087000ACF1640CA9F15009AAF13C0AABF1280BC8
:10088000AEF1140E4FF48018B14227D9B9420ED000
:10089000614512D049451DD0514518D0594518D051
:1008A000714501D1424615E0294EB14201D10122E4
:1008B00010E0274E1436B14201D110220AE0244E36
:1008C0002836B14206D0224A3C32914201D11A4622
:1008D00000E02A461E49091F0A602BE0B94213D0E6
:1008E000614517D0494522D051451DD059451DD0ED
:1008F000714501D142461AE0B14202D14FF08072F7
:1009000015E0134EB14201D1012210E0104E143611
:10091000B14201D110220AE00D4E2836B14206D074
:100920000B4A3C32914201D11A4600E02A4607495F
:1009300080394A60012180F82110002180F82010C0
:10094000416B01B188472046BDE8F09F800002401E
:100950000804024070B5044600F098F90546601C92
:1009600002D004480078044400F090F9401BA042F3
:10097000FAD370BD2C000020704700002DE9F04133
:100980003E4DE8683E4CC0064FF0FF374FF0000682
:1009900002D4E868400708D5D4F80880A760FFF7BC
:1009A000DFFC404600F06EF82670E868800653D5FC
:1009B0002020E8602078F8B1207801281DD0207828
:1009C000022833D06068401E60606068B0B3A068E1
:1009D000801CA060A06821696269090C41EA02419B
:1009E000120C21616261296921F0010129612169EB
:1009F000626989B2FFF7A6FC2EE06068401E606065
:100A0000606868B1A068FFF7B7FFA06800F50060F4
:100A1000A060296921F002012961FFF781FC1BE038
:100A20003846A7602670FFF7A7FF15E0286920F079
:100A3000040028610020FFF79FFF0CE0FFE720780B
:100A4000032817D020780428A06815D0B0F106003C
:100A5000FFF792FFA76026702078002808D1286948
:100A600020F007002861286920F4A050286126762C
:100A7000BDE8F081A068EBE7801EE9E700200240B6
:100A800028440020704700002DE9F84FDFF8C89196
:100A9000002409F1040A0AF1040B23460F270BF185
:100AA000040ED1E00125A54006EA0502AA4276D14E
:100AB000DFF8A8C14E68A6EB0C0866452BD00DDC0C
:100AC000032E34D005DC36B3012E19D0022E2FD1DF
:100AD0001BE0112E16D0122E2AD119E0B8F5881F6E
:100AE00019D006DCB8F5803F15D0B8F5801F1FD1AE
:100AF00011E0B8F5001F0ED0B8F5041F18D10AE0B8
:100B0000CB6815E0CB681B1D12E0CB6808330FE003
:100B1000CB680C330CE08B682BB1012B4FF0080332
:100B200003D0456104E0042302E0056100E00023F6
:100B3000FF2A01D8064601E000F104064FEA8405C9
:100B400001D9A5F12005D6F8008007FA05FC28EAAE
:100B50000C0803FA05F548EA0508C6F800804D6858
:100B6000ED0070D53E4DAE6946F00106AE61AD694F
:100B700024F0030605F0010500953A4D06EB050C3F
:100B8000DCF80850A607360F07FA06F825EA08052C
:100B9000DFF8D480404503D14FF0000825E052E053
:100BA000DFF8C880404502D14FF001081DE0DFF8B2
:100BB000C080404502D14FF0020816E0DFF8B48053
:100BC000404502D14FF003080FE0DFF8AC8040450C
:100BD00002D14FF0040808E0DFF8A080404502D1C0
:100BE0004FF0050801E04FF0060808FA06F848EA59
:100BF0000508CCF808804D68D9F80060ED034D4633
:100C000001D5164300E096432E604D68DAF8006087
:100C1000AD03554601D5164300E096432E604D685E
:100C2000DBF80060ED025D4601D5164300E0964317
:100C30002E604D68DEF80060AD02754601D51643A2
:100C400000E096432E60641C0A681646E2407FF47A
:100C500029AFBDE8F88F000000040140000011102A
:100C6000001002400000014000080140000C01405B
:100C7000001001400014014000180140001C014018
:100C80000AB1016170470904FBE700000148806870
:100C9000704700002C00002002488168027811444F
:100CA000816070472C000020074810B5016841F0B2
:100CB00010010160032000F085F8002000F006F824
:100CC00000F024F8002010BD0020024070B50D4D4A
:100CD00004464FF47A712878B1FBF0F00A490968AC
:100CE000B1FBF0F001F0EEF848B9102C07D2002269
:100CF0002146501E00F046F800206C6070BD0120B7
:100D000070BD00002C00002038000020144808B5F9
:100D1000816941F001018161816901F00101009166
:100D2000C16941F08051C161C069002200F080506A
:100D300000901146042000F025F8042000F014F87B
:100D400000221146052000F01DF8052000F00CF8E7
:100D50000448416821F0E06141F00071416008BD44
:100D60000010024000000140002809DB00F01F02D3
:100D7000012191404009800000F1E020C0F80011FD
:100D800070470000F0B40E4B1B680C46C3F30223FF
:100D9000C3F10705042D00D90425191D072901D227
:100DA000002300E0DB1E012606FA05F1491E214062
:100DB00099409E40761E16403143F0BC02F0DEBDE5
:100DC0000CED00E0064900F0070208684FF6FF034B
:100DD000184040EA0220034A1043086070470000B0
:100DE0000CED00E00000FA052DE9F0470F46050084
:100DF00061D0434E306800F00700B84209D2306835
:100E000020F0070038433060306800F00700B84237
:100E100051D128683B4C810712D5400703D5606843
:100E200040F4E06060602878000703D5606840F413
:100E3000605060606068A96820F0F000084360605E
:100E40002878C00728D06868012810D021680228B7
:100E500010D0890700292EDA616821F003010143CF
:100E60006160FFF713FF804641F288390DE0216889
:100E70008903EFE78901EDE7FFF708FFA0EB080121
:100E8000494502D90320BDE8F0876068696800F031
:100E90000C00B0EB810FEFD1306800F00700B842D2
:100EA0000BD9306820F0070038433060306800F01C
:100EB0000700B84201D00120E5E72878400705D5B2
:100EC0006068E96820F4E060084360602878000703
:100ED00006D56068296920F4605040EAC10060606E
:100EE00000F038F86168084AC1F30311515CC8404A
:100EF0000649086006480068FFF7E8FE0020C2E7E0
:100F00000020024000100240686100083800002004
:100F1000300000200448054900684968044AC1F3CC
:100F20000221515CC8407047380000200010024088
:100F3000786100080448054900684968044AC1F31B
:100F4000C221515CC84070473800002000100240A8
:100F50007861000812A185B00FC98DE80F0014A0B8
:100F6000144A006804905168134801F00C03042BE4
:100F700010D0082B0ED1C1F38343C9031DF8030021
:100F80000AD5516804AAC1F34041515C0A4A504352
:100F9000B0FBF1F005B0704708494843FAE700009C
:100FA00002030405060708090A0B0C0D0E0F1010AA
:100FB000010200000010024000127A0000093D000A
:100FC0002DE9F84F040070D02078C04DC00749D0FB
:100FD0006868C0F38100012807D06868C0F3810009
:100FE000022809D16868C00306D52868800339D56E
:100FF00060680028E7D035E06068B0F5803F0BD02E
:1010000010B1B0F5A02F11D0286820F480302860EE
:10101000286820F4802002E0286840F480302860AE
:10102000606890B1FFF732FE06460AE0286840F497
:1010300080202860F0E700BFFFF728FE801B6428AF
:1010400073D828688003F7D50CE0FFF71FFE06462B
:1010500005E000BFFFF71AFE801B6428F0D828685F
:101060008003F7D420789A4E80074FF001094FF0A3
:10107000000839D5686810F00C0F07D06868C0F315
:101080008100022809D16868C00306D42868800757
:1010900014D52069012808D110E02069B0B1C6F844
:1010A0000090FFF7F3FD074605E00AE1FFF7EEFDCC
:1010B000C01B0228C4D828688007F7D52868616952
:1010C00020F0F80040EAC10028600DE0C6F800807A
:1010D000FFF7DCFD074604E0FFF7D8FDC01B022840
:1010E00023D828688007F7D4207800072CD57948C2
:1010F000A169D9B1C0F80090FFF7C8FD074604E028
:10110000FFF7C4FDC01B02280FD8686A8007F7D517
:1011100071484FF4FA510068B0FBF1F0009000BF45
:101120000098411E0091FAD20EE080E0C0F80080E5
:10113000FFF7ACFD074604E0FFF7A8FDC01B02283F
:1011400075D8686A8007F7D42078400760D5E869C9
:101150000027C00008D4E86940F08050E861E869E1
:10116000012700F0805000905C480168C90513D445
:101170000168834641F480710160FFF787FD824674
:1011800006E000BFFFF782FDA0EB0A0064284ED8FE
:10119000DBF80000C005F5D5E06801280AD008B1E9
:1011A000052813D0286A20F001002862286A20F060
:1011B000040002E0286A40F001002862E06841F281
:1011C000883B98B1FFF762FD82460BE0286A40F049
:1011D00004002862EEE700BFFFF758FDA0EB0A010C
:1011E00059455AD8286A8007F6D50CE0FFF74EFD1E
:1011F000824605E0FFF74AFDA0EB0A0159454CD8AD
:10120000286A8007F6D41FB1E86920F08050E861B1
:10121000E06988B36968C1F38101022944D00228DA
:10122000C6F8608004D0FFF731FD044638E034E0B2
:10123000FFF72CFD074604E0FFF728FDC01B02283E
:101240002BD828688001F7D4206AB0F5803F05D1FB
:101250006868A16820F4003008436860D4E9080198
:101260000843696821F4741108436860C6F8609007
:10127000FFF70CFD044606E025E000BFFFF706FD82
:10128000001B022809D828688001F7D51BE000BFA1
:10129000FFF7FCFC001B022802D90320BDE8F88FF1
:1012A00028688001F4D40EE00128F7D06868226A2B
:1012B00000F48031914204D1616A00F470108842D8
:1012C00001D00120EAE70020E8E70000001002401A
:1012D000000042428004424238000020007000407A
:1012E00010B5FEF79DFF10BD2DE9FE430446032017
:1012F0000F4684F83400606C03285AD0B7F5805F3D
:1013000057D04FF4006600254FF08068B7421CD1DB
:10131000009501950021206801F044F8800121D456
:101320006946204601F01AFD98BB0198400332D56A
:10133000B4F850000104206801F070F848BB0221A5
:10134000206822E0A06B284327E01FB1A06B40F08B
:10135000006022E0009501950021206801F022F84C
:10136000800101D53546EDE76946204601F0F6FCDF
:1013700078B90198C0030ED5B4F850000104206874
:1013800001F04CF828B90021206801F094F80028F9
:10139000D8D00546D6E74546D4E7A063A06B012523
:1013A00058B121680C48886384F834500120BDE8A6
:1013B000FE83A06B40F08050EFE7211DD4E90506C5
:1013C0000EC90097CDE90106206800F0F5FF84F80A
:1013D00034500020EBE70000FF054000704700009C
:1013E000F0B5426E920F0A70426EC2F383624A7089
:1013F000426EC2F301628A70426E120CCA70B0F87B
:101400006420120A0A7190F864204A71826E120DEB
:10141000CA80826EC2F303420A72B0F86820C2F337
:10142000C0324A72B0F86820C2F380328A72B0F8D3
:101430006820C2F34032CA72B0F86820C2F30032AA
:101440000A7300264E73426C4FF40075012462B19A
:10145000012A3AD0026847499163816B41F080517B
:10146000816380F834400120F0BDB0F86820C36E7D
:101470009205120D42EA93720A61C26EC2F3C26211
:101480000A75C26EC2F302624A75C26EC2F342525C
:101490008A75C26EC2F38242CA75C26EC2F3C2328C
:1014A0000A760A69521C42650B7E03F007039B1CF7
:1014B0009A4042650B7A03F00F0704FA07F383653D
:1014C0005B0A5A43C0E917250EE090F86820C36E06
:1014D0009206920A42EA13420A610A69521C920277
:1014E0004265C0E91652056630F86C2FC2F38032AF
:1014F00001F8192F0288C2F3C6124A70027802F06E
:101500007F028A704268D20FCA704268C2F3417289
:101510000A714268C2F382624A714268C2F383521E
:101520008A714268C2F34052CA710E724268C2F3B5
:1015300000424A728288C2F3C0328A728288C2F341
:101540008032CA728288C2F340320A738288C2F340
:1015500000324A738288C2F381228A738288C2F37E
:101560000122CA730079C0F3460008744C7400204D
:10157000F0BD0000FF054000426C0A60826C4A60CA
:10158000C26C8A60026DCA60426D0A61826D4A61F6
:10159000C26D8A61006EC8610020704770B5044654
:1015A000B0F8500000250104206801F08EF818B151
:1015B000A16B0143A16304E00021206800F0F2FE6A
:1015C0000546C5F3432070BDF8B5056B04460068B9
:1015D000416B09041BD5290719D5D4E90A56002EF9
:1015E00014D00027206800F001FF05F8010B010A64
:1015F00005F8011B010C05F8021B000E361F7F1CAD
:1016000005F8010C082FEDD3C4E90A56F8BD416B6B
:101610004FF00006C9054FF0010744D53902816338
:101620002068C16B4CF23A329143C1632068C16AB1
:1016300021F00101C16228071DD515F0220F09D044
:10164000206801F073F828B1A16B0143A163204623
:10165000FFF7C4FE216840F23A50886384F8347082
:101660002663A80703D0204600F03EFAF8BD2046C6
:1016700000F03EFAF8BD2806FCD5A80609D520687A
:1016800001F054F828B1A16B0143A1632046FFF794
:10169000A5FEA807EED12068C16A21F00801C16249
:1016A00084F83470E3E7416B490424D5290722D537
:1016B000D4E90856002EDDD05FF0000715F8010BC5
:1016C000009015F8011B361F40EA0120009015F824
:1016D000021B40EA0140009015F8011C40EA01603D
:1016E00000906946206800F094FE7F1C082FE5D327
:1016F000C4E90856F8BD416B40F23A221142F9D0D4
:10170000416B890703D5A16B41F00201A163416BD5
:10171000090703D5A16B41F00801A163416B89065C
:1017200003D5A16B41F02001A163416BC90603D52C
:10173000A16B41F01001A163416B890503D5A16B39
:1017400041F00801A16340F23A7181632068C16BE6
:1017500040F23A329143C163206800F0E7FFA16B89
:101760000843A063280706D584F834702663204612
:10177000FFF734FEF8BD2806FCD515F0300F0CD06D
:10178000E16B11484863E06BFFF74CF80028F1D09B
:10179000E06BBDE8F84001F0BFBAA8070CD0216C9F
:1017A0000A484863206CFFF73DF80028E2D0206C1F
:1017B000BDE8F84001F08EBAA66384F83470266361
:1017C0002046FFF78DFDF8BD192D0008D52C000827
:1017D00070B504000ED094F83400002518B92577B0
:1017E000204600F03BF8032084F83400204600F047
:1017F0000BF808B1012070BDA5632563012084F8B2
:101800003400002070BD0000FEB50025044676209F
:101810000095CDE9015029460B460A46206800F0A4
:10182000CBFD08B10120FEBD0B4E46F8A05F20683D
:1018300000F0D4FD01253560204601F071FB20B990
:10184000204601F0F5FA0028EDD084F83450A16B61
:101850000143A163E6E700000000304230B585B0E7
:101860000021009101910291039100681C49884276
:1018700033D11C48416941F480614161416901F4FF
:1018800080610491816941F010018161816901F0F9
:1018900010010491816941F0200181618069022475
:1018A00000F0200004904FF4F850CDE90004032527
:1018B000694603950C48FFF7E7F80420CDE90004DA
:1018C000694603950948FFF7DFF8002211463120E9
:1018D000FFF758FA3120FFF747FA05B030BD000096
:1018E000008001400010024000100140001401403F
:1018F0002DE9F04F87B09B4616460D460446FFF78C
:10190000C5F900903DB194F83400012807D0A06BD0
:1019100040F000500DE0A06B40F0006009E00027AF
:10192000A763E16D06EB0B00884204D9A06B40F081
:101930000070A06395E0032084F834002068C7623B
:10194000606C012800D076024FF40071206800F02E
:1019500099FDDFF890A1012140B12368C3F838A0B8
:10196000A26B0243A26384F834107AE04FF0FF3098
:1019700001904FEA4B200290902003900220CDE985
:10198000040706918846B94601A9206800F0F4FCD6
:10199000BBF1010F06D9022020633146206800F018
:1019A00005FE05E0C4F830803146206800F017FEDF
:1019B00030B12268C2F838A0A16B0143A1634CE0AA
:1019C000029E1EE0406B000413D596B100272068EC
:1019D00000F00CFD05F8010B010A05F8011B010CD4
:1019E00005F8021B000E361F7F1C05F8010C082F9E
:1019F000EDD3FFF74BF90099411A109881421DD29F
:101A0000E0B12068426B40F22A310A42DAD0416BE1
:101A1000C90509D5BBF1010F06D9616C032903D0B3
:101A200000F084FE0028C4D12068416B09071AD554
:101A3000C0F838A0A06B40F0080051E02168C1F860
:101A400038A0A06B40F00040A06384F83480C4F854
:101A50003090032007B0BDE8F08F84F83480C4F8DC
:101A600030900120F6E7416B890705D5C0F838A012
:101A7000A06B40F0020033E0416B89061CD5C0F832
:101A800038A0A06B40F020002AE000BF00F0AEFCC0
:101A900005F8010B010A05F8011B010C05F8021BF2
:101AA000000E05F8010C361FFFF7F0F80099411AF7
:101AB000109881420ED268B12068416B890201D52D
:101AC000002EE3D1216840F23A50886384F83480D4
:101AD0000020BFE72168C1F838A0A06B40F00040AB
:101AE000A063BAE7FF05400010B5FEF7DDFB10BDAF
:101AF00010B5FEF7EBFB10BD2DE9FF4F8DB016467C
:101B00000D460446FFF7C2F80B903DB194F834003F
:101B1000012807D0A06B40F000500DE0A06B40F012
:101B2000006009E00027A7631098E16D3044884207
:101B300004D9A06B40F00070A0638BE0032084F810
:101B400034002068C762606C012800D076024FF430
:101B50000071206800F096FCDFF864B1012140B10B
:101B60002368C3F838B0A26B0243A26384F8341030
:101B700070E04FF0FF3003901098894640020490C7
:101B80009020CDE90507CDE90771BA4603A9206881
:101B900000F0F2FB1098012806D92020206331467E
:101BA000206800F0DDFD05E010202063314620684C
:101BB00000F0EFFD5FEA000806D02168C1F838B0F8
:101BC000A06B40EA080071E0049E27E0406B4004EF
:101BD0001CD5DEB15FF0000715F8010B009015F879
:101BE000011B361F40EA0120009015F8021B40EA55
:101BF0000140009015F8011C40EA01600090694620
:101C0000206800F006FC7F1C082FE5D3FFF73EF8A4
:101C10000B99411A1A98814220D2F8B12068416B81
:101C200040F21A321142D1D0416BC90523D5109927
:101C3000012920D9616C03291DD000F077FDD0B1B6
:101C40002268C2F838B0A16B0143A16384F83490D4
:101C5000C4F830A0012011B0BDE8F08F2168C1F8B0
:101C600038B0A06B40EA0800A06384F83490C4F850
:101C700030A00320EFE72068416B090705D5C0F8C5
:101C800038B0A06B40F0080010E0416B890705D523
:101C9000C0F838B0A06B40F0020007E0416BC90605
:101CA00006D5C0F838B0A06B40F01000A063CDE7B7
:101CB00040F23A51816384F834900020CBE7000071
:101CC000FF0540007047000038B5044600684268D0
:101CD0008168C9434B0606D5CB0704D1D3435B06C5
:101CE00001D4216C05E08B0708D4D3431B0605D42F
:101CF000616C01B02046BDE8304008478B0601D535
:101D00004B0646D4D3439B0643D44B060AD494F8DF
:101D10005130032B3ED0636D43F004036365C36809
:101D200083680093890609D4616D41F00101616502
:101D300081680091016821F040010160606D002818
:101D400027D02068416821F0E0014160012084F83B
:101D50005100900722D02068416821F003014160C2
:101D6000104DE06C40B14563E06CFEF75BFD18B1CF
:101D7000606D40F040006065A06C002809D04563AC
:101D8000A06CFEF74FFD002803D0606D40F04000CE
:101D9000606538BDC1688068009038BD2046FFF797
:101DA00091FF38BDD531000870B5040005D000257D
:101DB000A56294F8510010B106E0012070BD84F8CE
:101DC0005050204600F02EF8022084F85100206880
:101DD000016821F040010160D4E901010843D4E920
:101DE00003121143084361690843218B01F4007118
:101DF0000843E1690843216A0843A16A084321684E
:101E00000860A069042101EA104021684860206848
:101E1000C16921F40061C1616565012084F8510048
:101E2000002070BD30B585B0002400940194029468
:101E3000039400681F4988423AD11F48816941F0E4
:101E400010018161816901F010010491816941F4FF
:101E500080518161816901F480510491816941F06F
:101E6000040181618069154D00F004000490A020F8
:101E70000090022001900320039069462846FEF757
:101E800003FE4020CDE90004694628460294FEF78F
:101E9000FBFD002211462320FEF774FF2320FEF7EE
:101EA00063FF01200090019069460548FEF7ECFDB4
:101EB00005B030BD00300140001002400008014074
:101EC0000010014010B5401EB0F1807F01D3012009
:101ED00010BD4FF0E02460610F21601701F04EFD4E
:101EE0000020A06107202061002010BD7047000085
:101EF00070B5026804461068D168536910F00F0F7E
:101F000050D003F0010501F4907635435DD0C2074F
:101F100005D0CA0503D5E26B42F00102E263420735
:101F200005D5DA0703D0E26B42F00202E2638207D2
:101F300005D5DA0703D0E26B42F00402E263020740
:101F400005D5DA0703D0E26B42F00802E263E26BE8
:101F5000002A33D0800604D5880602D5204601F039
:101F600047FB20684069E16BC0F38010090700D48B
:101F700028B3204601F02EFB2068416949061AD596
:101F8000416921F040014161606BA0B11B4941638F
:101F9000606BFEF747FC002810D0606B416BBDE81A
:101FA00070400847830610D58B060ED52046BDE845
:101FB000704001F01DBB2046FFF798FF70BD204622
:101FC000FFF794FF0020E06370BD030606D50B0603
:101FD00004D52046BDE8704001F0B2BB4006F3D501
:101FE0004806F1D5D168204621F04001D16020217A
:101FF00084F8391000F0D4F870BD0000C535000831
:1020000070B5040004D094F83900002510B106E042
:10201000012070BD84F83850204600F023F82420B9
:1020200084F839002068C16821F40051C16020465D
:1020300001F02AFB2068016921F4904101612068C8
:10204000416921F02A0141612068C16841F40051D1
:10205000C160E563202084F8390084F83A0000204C
:1020600070BD000030B585B0002400940194029446
:1020700003940068184988422CD11848816941F4BA
:1020800080418161816901F480410491816941F05D
:10209000040181618069124D00F0040004904FF446
:1020A00000700090022001900320039069462846AA
:1020B000FEF7EAFC2815CDE900046946284602949B
:1020C000FEF7E2FC002211462520FEF75BFE2520EC
:1020D000FEF74AFE05B030BD003801400010024056
:1020E0000008014070472DE9F843044690F8390094
:1020F0001F4616460D46202850D1A5B19EB194F832
:10210000380001284AD0012084F838004FF0000838
:10211000C4F83C80212084F83900FEF7B7FDA6847E
:102120008146E68426E00120BDE8F883E08C401E6D
:10213000E084A0684B46B0F5805F4FF000024FF09E
:1021400080012046009703D001F02BFBE8B90DE099
:1021500001F027FBC8B928882168C0F3080048604F
:10216000206908B16D1C05E0AD1C03E0216815F87D
:10217000010B4860E08C0028D8D14B46002240215A
:102180002046009701F00DFB08B10320CCE720208A
:1021900084F8390084F838800020C5E70220C3E7BE
:1021A0007047FEE710B506490648FEF793F8044C61
:1021B000A41EA11D20700448FEF78CF8607010BDAD
:1021C0000C000020840E03081800002030B585B0F4
:1021D00000241C480094019402940394816941F006
:1021E00004018161816901F004010491816941F078
:1021F00008018161816901F008010491816941F060
:1022000010018161816901F010010491816941F03F
:102210002001816180690C4D00F0200004900022B3
:1022200023212846FEF72CFD232000900120CDE934
:1022300001040220039069462846FEF725FC05B0FC
:1022400030BD000000100240000C01400648054966
:102250000160002141608160C1600161416106212E
:10226000816170470080014008430020104810B58C
:102270000E4901604FF482714160002102228160A9
:10228000C0E9031201224261520282612822C0E9A0
:102290000721416281620A21C162FFF785FD0028A2
:1022A00003D0BDE81040FEF714B810BD0030014067
:1022B0008C4300200C4810B50A4901604FF4E1310D
:1022C0004160002181600C22C160C0E9041281617B
:1022D000C161FFF795FE002803D0BDE81040FDF76F
:1022E000F8BF10BD00380140E4430020FEE770470E
:1022F000704770473EB50CA001F01CFB01AA69466F
:1023000012A002F084FA0446019800F58050416959
:102310008278891E51430098C90A4243D20A0CA010
:1023200001F008FB20463EBD2A2A2A2A2A2A2A2A08
:1023300020C9E8B1B8D0C5CFA2BBF1C8A1202A2AD4
:102340002A2A2A2A2A2A0A0A00000000303A2F00E4
:102350002531306C75204D4220D7DCC7FDB6AFC6A5
:10236000F7BFD5BCE42E0A2531306C75204D4220D4
:10237000BFC9D3C32E0A0A000A6842624A68826251
:10238000D1E902231A43D1E904310B43C16A1A434C
:1023900021F0F7011143C16200207047006800F08E
:1023A0000300704708444069704700000148FFF788
:1023B0000BB900000843002070B50DF1100C11435B
:1023C0009CE870002343194329434268314347F690
:1023D000FF639A430A434260002070BD10B5032199
:1023E00001600220FEF7B6FA002010BDD0F8800090
:1023F00070470A688260D1E901231A43D1E90331A9
:102400000B43C1681A436FF30B011143C1600020F5
:1024100070470968C0F880100020704710B586B07A
:1024200004463720CDE900104020029000200390A0
:102430004FF48060049069462046FFF7DAFF41F2CE
:1024400088323721204600F0BDF906B010BD0000EB
:1024500010B504460A4886B001432920CDE9001092
:1024600040200290002003904FF480600490694661
:102470002046FFF7BEFF204600F05CFA06B010BD14
:102480000000108010B586B004461020CDE9001081
:1024900040200290002003904FF480600490694631
:1024A0002046FFF7A6FF41F288321021204600F0B7
:1024B00089F906B010BD10B586B004460620CDE9F6
:1024C000001040200290002003904FF480600490A0
:1024D00069462046FFF78DFF41F2883206212046EB
:1024E00000F070F906B010BD30B585B00024054687
:1024F000009401944FF480600294CDE90340694652
:102500002846FFF776FF0B484FF4FA510068B0FBFE
:10251000F1F041F288314843401E03D24FF00040B1
:1025200005B030BD696B0906F6D5C520A863204605
:10253000F6E700003800002070B585B004464FF47F
:10254000D570009001A908204025002681E861008F
:10255000C001049069462046FFF74BFF12484FF434
:10256000FA510068B0FBF1F041F288314843401E57
:1025700003D24FF0004005B070BD616B11F0450F04
:10258000F5D00905F3D4606B400701D5042003E0C2
:10259000606BC00702D00120A063ECE7606B4006CF
:1025A00000D5A5633046E6E73800002010B586B0B8
:1025B00004461220CDE90010402002900020039034
:1025C0004FF48060049069462046FFF712FF41F205
:1025D00088321221204600F0F5F806B010BD10B583
:1025E00086B004461120CDE9001040200290002062
:1025F00003904FF48060049069462046FFF7F9FE8F
:1026000041F288321121204600F0DCF806B010BDFE
:1026100010B586B004460720CDE900204020029086
:10262000002003904FF48060049069462046FFF735
:10263000E0FE41F288320721204600F0C3F806B0E0
:1026400010BD10B586B0044600210220CDE900106F
:10265000C020CDE902014FF4806004906946204615
:10266000FFF7C7FE204600F03DF906B010BD10B5DB
:1026700086B004460920CDE90010C0200290002059
:1026800003904FF48060049069462046FFF7B1FE46
:10269000204600F027F906B010BD10B586B00446FC
:1026A00000213320CDE900104020CDE902010001D6
:1026B000049069462046FFF79CFE41F288323321A0
:1026C000204600F07FF806B010BD10B586B0044675
:1026D0000D20CDE9001040200290002003904FF41F
:1026E0008060049069462046FFF783FE41F28832FD
:1026F0000D21204600F066F806B010BD30B585B05B
:102700000C46054600210320CDE900104020CDE90C
:1027100002010001049069462846FFF76AFE22463E
:102720000321284600F028F905B030BD10B586B069
:10273000044600210C20CDE900104020CDE9020123
:102740000001049069462046FFF753FE034A0C211E
:10275000204600F037F806B010BD000000E1F50596
:1027600010B586B004461920CDE900104020029033
:10277000002003904FF48060049069462046FFF7E4
:1027800038FE41F288321921204600F01BF806B0CD
:1027900010BD10B586B004461820CDE900104020C9
:1027A0000290002003904FF4806004906946204618
:1027B000FFF71FFE41F288321821204600F002F890
:1027C00006B010BD454B10B51B684FF4FA54B3FB6F
:1027D000F4F353435B1E02D24FF0004010BD426B36
:1027E00012F0450FF6D01205F4D4426B520703D510
:1027F00004218163084610BD426BD20702D001213B
:10280000816305E0C52282630269D2B28A4201D0A7
:10281000012010BD0021FFF7C5FD3149084201D15B
:10282000002010BD002802DA4FF0007010BD4100FA
:1028300001D5402010BD810001D5802010BDC10010
:1028400002D54FF4807010BD010102D54FF4007025
:1028500010BD410102D54FF4806010BDC10102D509
:102860004FF4006010BD010202D54FF4805010BD3E
:10287000410202D54FF4005010BD810202D54FF441
:10288000804010BDC10202D54FF4004010BD41038D
:1028900002D54FF4003010BD810302D54FF48020E3
:1028A00010BDC10302D54FF4002010BD010402D5B4
:1028B0004FF4801010BD410402D54FF4001010BD3C
:1028C000810402D54FF4800010BD000702D54FF4FB
:1028D000000010BD4FF4803010BD00003800002013
:1028E00008E0FFFD12494FF4FA520968B1FBF2F11A
:1028F00041F288325143491E02D24FF000407047E6
:10290000426B12F0450FF6D01205F4D4416B490723
:1029100003D50421816308467047416BC90703D082
:102920000121816308467047C521816300207047FB
:10293000380000200F494FF4FA520968B1FBF2F158
:1029400041F288325143491E02D24FF00040704795
:10295000426B12F0450FF6D01205F4D4416B4907D3
:1029600003D50421816308467047C5218163002097
:10297000704700003800002030B5204B4FF4FA5467
:102980001B68B3FBF4F341F2883463435B1E02D24D
:102990004FF0004030BD446B14F0450FF6D02405D5
:1029A000F4D4436B5B0703D504218163084630BD33
:1029B000436BDB0702D00121816303E00369DBB2D3
:1029C0008B4201D0012030BDC52181630021FFF77A
:1029D000E9FC10F4604F04D0410406D54FF40050D8
:1029E00030BD000C1080002030BD000402D54FF433
:1029F000805030BD4FF4803030BD000038000020E2
:102A000010B50446C2B019A000F094FF012221467F
:102A1000214802F04FFA2149022260B110050860F6
:102A2000012008600A601EA000F084FF1A4801F02F
:102A3000C7FE42B010BD20200860C00208600A60D6
:102A40001DA000F077FF40ABFF226946124802F05C
:102A500073FB010003D01DA000F06CFFE6E721A08E
:102A6000409900F067FF694627A0F5E72A2A2A2A3D
:102A70002A2A2A2A20BCB4BDABBDF8D0D0CEC4BC13
:102A8000FEB6C1C8A1B2E2CAD42E2E2E202A2A2A0E
:102A90002A2A2A2A2A0A0A0080120020100C014041
:102AA000A3A1A3A1B4F2BFAACEC4BCFECAA7B0DC46
:102AB000A1A30D0A00000000A1B7B4F2BFAACEC4C2
:102AC000BCFEB3C9B9A6A1A30D0A0000A3A1A3A18E
:102AD000CEC4BCFEB6C1C8A1CAA7B0DCA3BA282523
:102AE00064290A00A1B7CEC4BCFEB6C1C8A1B3C94F
:102AF000B9A62CB6C1B5BDD7D6BDDACAFDBEDDA319
:102B0000BA25640D0A000000A1B7B6C1C8A1B5C3BB
:102B1000B5C4CEC4BCFECAFDBEDDCEAAA3BA0A0AA5
:102B20002573200A0D0A000010B508A000F002FF6E
:102B300011A11248FDF743FB104803F0B9F9104901
:102B40000870BDE810400FA000F0F4BE2A2A2A2A1F
:102B50002A2A2A2A20B1E9C0FA205344BFA820D645
:102B6000D0CBF9D3D0CEC4BCFE202A2A2A2A2A2AC6
:102B70002A2A0A0A00000000303A2F000400002030
:102B80000A0000200A00000038B5044615461AA0C5
:102B900000F0D0FE0A222146224802F08BF9224C96
:102BA000207058B121484FF40011016001210160EB
:102BB000022101601EA000F0BDFE38BD23A000F080
:102BC000B9FE2846FDF7F4FA02466B462946154839
:102BD00002F0F9FB2070011E06D027A000F0AAFE2B
:102BE000104801F0EDFD38BD29A0009900F0A2FECB
:102BF000294630A0F2E700002A2A2A2A2A2A2A2A6D
:102C000020BCB4BDABBDF8D0D0CEC4BCFED0B4C8DF
:102C1000EBB2E2CAD42E2E2E202A2A2A2A2A2A2AC7
:102C20002A0A0A00801200200A000020100C01402D
:102C3000A3A1A3A1B4F2BFAA2FB4B4BDA8CEC4BCB3
:102C4000FECAA7B0DCA1A30A0A000000A1B7B4F233
:102C5000BFAA2FB4B4BDA820CEC4BCFEB3C9B9A6C8
:102C6000A3ACCFF2CEC4BCFED0B4C8EBCAFDBEDD6F
:102C7000A1A30D0A00000000A3A1A3A1CEC4BCFE25
:102C8000D0B4C8EBCAA7B0DCA3BA282564290A00CF
:102C9000A1B7CEC4BCFED0B4C8EBB3C9B9A6A3AC2F
:102CA000D0B4C8EBD7D6BDDACAFDBEDDA3BA256461
:102CB0000A000000A1B7CFF2CEC4BCFED0B4C8EB6E
:102CC000B5C4CAFDBEDDCEAAA3BA0A0A2573200A7E
:102CD0000D0A000010B5446A40F23A50216888633A
:102CE0002046FEF75BFC012184F8341000212163AB
:102CF000062801D0052805D12068FFF717FDA16B34
:102D00000843A063A06B0028204602D0FEF766FBB4
:102D100010BDFEF7E5FA10BD10B5446A40F23A5016
:102D2000216888632046FEF739FC012184F83410BD
:102D300000212163062801D0052805D12068FFF76E
:102D4000F5FCA16B0843A063A06B0028204602D0CD
:102D5000FEF744FB10BDFEF7C3FA10BD2DE9F04F9E
:102D600089B00D460446FDF791FF00268346009684
:102D70000196374608212068FFF784FB002834D1EC
:102D8000B4F8500001042068FFF748FB00282CD15C
:102D9000401E4FF00808CDE9020830204FF002092C
:102DA000CDE904090120CDE9067002A92068FFF7EA
:102DB000E3FA2068FFF771FC002816D1EA4640F2DA
:102DC0002A472068416B394212D1416B890204D5F0
:102DD000FFF70CFB4AF82600761CFDF757FFA0EB27
:102DE0000B00401CEDD14FF0004009B0BDE8F08F62
:102DF000416B090703D5C0F838800820F5E7416B1F
:102E0000890703D5C0F838900220EEE7416B8906A8
:102E100003D5202181630846E7E740F23A518163F8
:102E2000019800BA2860009800BA68600020DCE7CA
:102E300010B590B004460120ADF838002068FFF7C7
:102E4000ADFA002854D0606C032842D02068FFF708
:102E5000F8FB00284AD100212068FFF7A3FA606739
:102E600004212068FFF79EFAA06708212068FFF779
:102E700099FAE0670C212068FFF794FAC4F8800003
:102E8000606C032825D00EA92068FFF737FC0028C6
:102E90002CD1606C03281CD0BDF8380020650104DB
:102EA0002068FFF7E4FB002820D100212068FFF70D
:102EB00079FA606604212068FFF774FAA066082199
:102EC0002068FFF76FFAE0660C212068FFF76AFAC6
:102ED000206704212068FFF765FA000DE06403A96C
:102EE0002046FEF77DFA30B14FF0805010B010BD93
:102EF0004FF08060FAE7B4F8500000230204206825
:102F0000FFF786FB0028F1D104F1100007C88DE817
:102F1000070094E80F00FFF74FFA0020E6E70000F3
:102F20002DE9F84F0026044600963546B046006865
:102F3000FFF7DAFA002827D12068FFF7FDFA4FF0F3
:102F4000805B4FF001094FF6FF7748B1A664206817
:102F5000FFF7CAFA002817D1A06C012802D020E0A0
:102F6000C4F8489000212068FFF758FA58B918E0D3
:102F700000212068FFF752FA002805D15146206849
:102F8000FFF766FA10B15846BDE8F88F00212068B7
:102F9000FFF708FA05464FEAD0780098401C0090E9
:102FA00002E0DFF82CA00098B84202D2B8F1000F7E
:102FB000DED00098B84202D34FF08070E4E768009A
:102FC00002D5C4F8449000E066640020DCE700000D
:102FD000000010C110B5064C01202070FDF734F937
:102FE00018B9207820F001002070207810BD000072
:102FF0004800002010B5124888B014460078C00779
:1030000002D0032008B010BDB9B1012905D00229B2
:1030100008D003290CD00420F4E76846FDF702F934
:10302000069809E06846FDF7FDF80798208004E05F
:103030006846FDF7F7F8079820600020E2E70000F7
:10304000480000202DE9F0411E461746084601259C
:10305000094C0A4B32463946FDF716F928B109E00A
:10306000641E02D20120BDE8F081FDF7E1F80028DE
:10307000F6D100252846F6E7A086010000E1F50517
:1030800010B5064C01202070FDF7D2F818B9207851
:1030900020F001002070207810BD000048000020C2
:1030A0002DE9F0411E46174608460125094C0A4BFA
:1030B00032463946FDF7FAF828B109E0641E02D21B
:1030C0000120BDE8F081FDF7B3F80028F6D1002516
:1030D0002846F6E7A086010000E1F50510B50122BB
:1030E0000FA1104801F0B4FE04460D2809D0002CB1
:1030F00011D001460CA000F01DFC14A000F01AFC39
:10310000FEE71BA000F016FC0022114604A001F00F
:10311000DFFB044602E021A000F00CFC204610BDBD
:10312000303A2F0050020020A3A1A3A1534420BF96
:10313000A8B9D2D4D8CEC4BCFECFB5CDB3CAA7B03F
:10314000DCA1A3282564290A0A000000A3A1A3A1E9
:10315000BFC9C4DCD4ADD2F2A3BA5344BFA820B3D4
:10316000F5CABCBBAFB2BBB3C9B9A6A1A30A0A00DA
:10317000A1B75344BFA820BBB9C3BBD3D0CEC4BCF6
:10318000FECFB5CDB3A3ACBCB4BDABBDF8D0D0B809
:10319000F1CABDBBAF2E2E2E0A0A0000A1B75344C0
:1031A000BFA820CEC4BCFECFB5CDB3B9D2D4D8B35E
:1031B000C9B9A6A3ACBFC9D2D4BDF8D0D0B6C1D0CE
:1031C000B4B2E2CAD40A0A000148FEF77DBD00008D
:1031D0008C43002010B5406A0021C187C186FEF7EC
:1031E00071FD10BD2DE9F041104F06464FF48030BF
:1031F00014460D463861032000F010F9C5F307406E
:1032000000F00CF9C5F3072000F008F9E8B200F06F
:1032100005F904E0FF2000F001F906F8010B641E37
:10322000A4B2F7D201203861BDE8F081001001405E
:103230002DE9F04707460E4611F0FF00C0F10001EE
:10324000CDB24FEA122402F0FF094FF4807A13D076
:10325000F0B24042C0B206EB00080CB3501B80B283
:10326000040A00F0FF092A463146384600F04EF8BD
:103270003D44464657462AE06CB15546641EE4B2CA
:103280000CD32A463146384600F040F806F58076E1
:1032900007F58077F2E73146384621E04A46FAE7FB
:1032A000A945F8D9A9EB0500C4B22A4631463846EB
:1032B00000F02CF841467819224611E03A46314692
:1032C000284600F023F805F5807506F58076641E23
:1032D000E4B2F3D2B9F1000006D0024631462846E6
:1032E000BDE8F04700F012B8BDE8F08710B5FEF772
:1032F000BDFF0548FEF758FD03480068016841F02E
:103300004001016010BD00008C4300202DE9F04118
:1033100014460D46064600F0CBF8134F4FF48030AC
:103320003861022000F07AF8C5F3074000F076F823
:10333000C5F3072000F072F8E8B200F06FF8B4F5BA
:10334000807F07D909A000F0F5FAFF24307800F05B
:1033500065F8761C641EA4B2F8D201203861BDE87D
:10336000F04100F085B80000001001403C3C2D46C3
:103370004C4153482D4552524F522D3E3E20535002
:10338000495F464C4153485F5061676557726974A5
:103390006520746F6F206C61726765210A00000000
:1033A00070B50D4D4FF4803028619F2000F036F845
:1033B000FF2000F033F80446FF2000F02FF8064607
:1033C000FF2000F02BF8014601202861200440EA8C
:1033D0000620084370BD00000010014070B504468F
:1033E00000F066F800F044F80B4D4FF4803028618F
:1033F000202000F013F8C4F3074000F00FF8C4F3E6
:10340000072000F00BF8E0B200F008F80120286176
:10341000BDE8704000F02CB80010014070B51249B2
:103420004FF480550D60114B1C6805E00A68561E6C
:103430000E6001D200200CE0A268D2439207F5D4BE
:10344000E0600D601A6808E00868431E0B6004D253
:10345000012000F049F8C0B270BD9068C043C007B9
:10346000F2D1D068F7E70000000000208C43002074
:1034700070B50D4D4FF4803028610520FFF7CEFF69
:103480000A4CA8142060FF20FFF7C8FF21684A1EDD
:10349000226004D2BDE87040042000F025B8C007C7
:1034A000F1D10120286170BD001001400000002012
:1034B00010B5054C4FF4803020610620FFF7AEFFB9
:1034C0000120206110BD00000010014010B5054C26
:1034D0004FF480302061AB20FFF7A0FF0120206176
:1034E00010BD00000010014010B5014602A000F020
:1034F00021FA002010BD00003C3C2D464C415348B1
:103500002D4552524F522D3E3E2053504920B5C8B2
:10351000B4FDB3ACCAB1216572726F72436F64655A
:10352000203D2025640A00007047FDF7B5BB30B58B
:103530008FB028216846FCF730FE14210AA8FCF75A
:103540002CFE01210804CDE900100024029402257C
:103550000491CDE907504FF4E01009906846FDF75B
:103560002FFD0F20CDE90A056802CDE90C400221AC
:103570000AA80E94FDF738FC0FB030BD0D48016865
:1035800041F00101016041680B4A1140416001684E
:103590000A4A11400160016821F4802101604168FC
:1035A00021F4FE0141604FF41F0181600449C00312
:1035B00008607047001002400000FFF8FFFFF6FEB1
:1035C00008ED00E010B5406A0021C185C184FEF716
:1035D0008DFC10BD0168CA6822F49072CA6001684F
:1035E0004A6922F001024A61202180F83A107047AE
:1035F00010B590F83A10222901D0022010BD816840
:10360000B1F5805F11D00169002901681FD04968B8
:1036100001F07F03816A4A1C82620B70C18D491ED2
:103620000904090CC18518D02BE00269816A002ABF
:103630000268526805D0D2B20A80816A491C816250
:10364000ECE7C2F308020A80816A891CF7E74A683E
:10365000816A4B1C83620A70E0E70168CA6822F045
:103660002002CA600168CA6822F48072CA600168D8
:103670004A6922F001024A61202180F83A10FEF7DF
:1036800031FD002010BD00002DE9F0410446006826
:103690000169E26821F44051114301612169A06888
:1036A0000843616908432168CA6841F20C639A4380
:1036B0000243CA6020684169A26921F44071114344
:1036C00041611E49206864253226884202D1FDF7F7
:1036D00031FC01E0FDF71EFC00EBC00101EB001125
:1036E00060686FF018078000B1FBF0F2B2FBF5F2F2
:1036F000B1FBF0F37A4303EB8202B1FBF0F306EB8C
:103700000212B2FBF5F2B3FBF5F302F0F00202EBAA
:103710000312B1FBF0F3B1FBF0F0B0FBF5F078432E
:1037200003EB800006EB0010B0FBF5F0216800F021
:103730000F0010448860BDE8F081000000380140AF
:1037400090F83910212901D0022070478168B1F525
:10375000805F016A0BD04A1C0262026809785160DE
:10376000C18C491E0904090CC1840ED017E00988D8
:103770000268C1F30801516001690029016A02D0A1
:10378000491C0162ECE7891CFBE70168CA6822F06A
:103790008002CA600068C16841F04001C160002039
:1037A00070472DE9F041984617460E460446069D9F
:1037B0001DE0681C1BD02DB1FDF768FAA0EB0800D6
:1037C000A84214D92068C16821F4D071C160206872
:1037D000416921F001014161202084F8390084F819
:1037E0003A00002084F838000320BDE8F08120680A
:1037F000006836EA000004D00020B842D9D000208A
:10380000F3E70120F9E700000148FEF771BB000073
:10381000E443002010B50C4C0121217020B1012897
:1038200000D02170207810BDFFF760FD4FF4FA70D2
:10383000401E0004000CFBD1FFF748FE002000F002
:10384000A5FF2070EEE700001400002003004FF0F9
:10385000010003D0012B00D004207047012904D0BF
:10386000022905D0032909D106E04FF4C06004E025
:103870004FF48050108001E001201060002070475C
:1038800038B50C4604218DF8001028B1012801D06C
:103890008DF80010002038BD4FF6FF7000EA0333AA
:1038A00011031A46204601F50011FFF79BFC00208A
:1038B0008DF80000EEE7000070B50A4C0125257078
:1038C00010B101280AD10AE0FFF76AFD06498842D3
:1038D00004D1207820F00100207000E025702078CD
:1038E00070BD0000140000201740EF00F8B50E4630
:1038F00001464FF004001D008DF8000003D021B1F7
:10390000012911D112E00420F8BD140304F50014BC
:103910002046FFF763FD4FF6FF7000EA05322146AF
:103920003046FFF785FC00208DF800000020F8BD30
:10393000FEE700000FB4054B10B503A9044A029836
:1039400000F03CF810BC5DF814FB0000D5580008EE
:103950004C0000200FB4084B10B504A902AA03982C
:1039600000F02CF8044602A9002000F0C8F9204617
:1039700010BC5DF814FB0000FF3C00080907090EAD
:10398000002804DB00F1E02080F80014704700F00C
:103990000F0000F1E02080F8141D704702E008C815
:1039A000121F08C1002AFAD170477047002001E0B9
:1039B00001C1121F002AFBD1704700002DE9FF4F03
:1039C0008BB088460546002606E025280BD0DDE9A9
:1039D0000D1290476D1C761C28780028F5D10FB089
:1039E0003046BDE8F08F0024A146A2460122AE4930
:1039F00000E0044315F8013F203B02FA03F00842BF
:103A0000F7D128782A2810D06FF02F022878A0F15B
:103A10003001092915D809EB890102EB410144F075
:103A2000020400EB01096D1CF0E758F8041B5FEA83
:103A3000010903D544F40054C9F1000944F002041B
:103A40006D1C28782E2817D115F8010F44F00404B6
:103A50002A280ED06FF02F022878A0F13001092912
:103A60000AD80AEB8A0102EB410100EB010A6D1C46
:103A7000F2E758F804AB6D1C28786C280FD006DCF0
:103A80004C2817D068280DD06A2814D104E0742877
:103A900010D07A280FD10DE044F400140AE044F469
:103AA000801401E044F440146978814202D104F5A5
:103AB00080146D1C6D1C2878692865D006DC0028F0
:103AC0008DD0632827D0642806D15DE06E2808D009
:103AD00073282AD0752877D0DDE90D129047761C1F
:103AE000E0E0C4F30250022809D003280DD0D8F832
:103AF000001004280DD00E6008F10408D2E0D8F8B8
:103B00000010F217C1E90062F6E7D8F800100E8045
:103B1000F2E70E70F0E718F8041B8DF80010002093
:103B20008DF80100EB46012003E058F804BB4FF08C
:103B3000FF3061074FF0000701D40AE07F1C5745B2
:103B40000DDA8742FADB1BF807100029F6D106E0F0
:103B50007F1C8742FCDB1BF807100029F8D1DDE948
:103B60000D23A9EB07008146214600F0B1F830444F
:103B7000C61904E0DDE90D121BF8010B90477F1E0A
:103B8000F8D22146484688E058F8040BC4F30251A5
:103B90004FF00A0B032900D100B2042900D140B232
:103BA000002802DA40422D2102E0210505D52B2113
:103BB0008DF82410012104E006E0E10710D0202157
:103BC000F6E708AF089113E058F8040BC4F302516C
:103BD0004FF00A0B032900D180B2042900D1C0B2F2
:103BE0000021EEE75946FCF7F3FA303107F8011DE2
:103BF0000028F7D1ADEB070000F1200B600702D5DC
:103C000024F4803401E04FF0010ADA4502DDAAEB2A
:103C10000B0000E00020824600EB0B0108980144F5
:103C2000A9EB01000A90E00306D4DDE90D2321464B
:103C30000A9800F04DF806444FF0000908E009A981
:103C400011F80900DDE90D12904709F10109761C10
:103C500008998945F3DBE0030CD5DDE90D23214606
:103C60000A9800F035F8064404E0DDE90D12302032
:103C70009047761CBAF10001AAF1010AF5DC05E0D3
:103C8000DDE90D1217F8010B9047761CBBF100011E
:103C9000ABF1010BF4DC0A982146DDE90D2300F0BD
:103CA00005F806446D1C97E6092801002DE9F0414E
:103CB000044600251E461746880404D405E039460C
:103CC0002020B0476D1C641EF9D52846BDE8F08160
:103CD0002DE9F041044600251E469046C80301D553
:103CE000302700E02027880404D505E04146384607
:103CF000B0476D1C641EF9D52846BDE8F0810A68FE
:103D0000531C0B601070704710B5044600F58050CE
:103D100000220271521EC262204601F0EBFF08B180
:103D2000032010BDB4F8FE01A0F52A41553901D099
:103D3000022010BD94F83600B4F8371040EA012193
:103D40000848B0EB012F08D094F85210B4F8532073
:103D500041EA0221B0EB012F01D1002010BD01206A
:103D600010BD00000046415400E0401C02780AB13A
:103D70008A42FAD1D0B27047F0B50022174B1446F0
:103D800000F5805002EB420653F826506DB10768EB
:103D9000BD420BD103EB860587686E68BE4205D134
:103DA0002D89C688B54204D000E00124521C022AA5
:103DB000E8D3022A01D079B904E05CB9022909D01C
:103DC0001220F0BD02EB420003EB80004089B0F509
:103DD000807F01D00020F0BD1020F0BD48440020BD
:103DE00030B50021064A0C4601EB410352F823503E
:103DF000854201D142F82340491C0229F4D330BD49
:103E00004844002000F58050426A006800F5805068
:103E1000438980784343B1FBF3F0121D02CA19B104
:103E2000884203D3401AF8E700207047116808441D
:103E3000704700F58050891E4269921E8A4201D85F
:103E400000207047826A807801FB002070472DE9CE
:103E5000F04180460F0000F5805407D0404601F045
:103E60008BFD022809D20120BDE8F081E66816B179
:103E70006069B04207D8012605E0411CF4D06169B1
:103E80008142F1D83E46354660696D1CA84202D891
:103E90000225022E0AD32946404601F06DFD38B1B5
:103EA000411CE1D00128DFD0B542EDD10020DBE795
:103EB0006FF070422946404601F038FF30B957B1E3
:103EC0002A463946404601F031FF20B101280DD085
:103ED00001252846C8E7E5602069411CF9D0401E4D
:103EE0002061607940F001006071F2E74FF0FF352A
:103EF000EFE700002DE9F84F88460F6800E07F1CCF
:103F000039782F29FBD05C29F9D000F5805A00249C
:103F1000DAF820602546785D6D1C202827D32F28ED
:103F200025D05C2823D0FF2C41D2A0F181017D292E
:103F30000BD8795D6D1C01EB0020A1F1400280B22D
:103F40003F2A02D380397F2931D2012101F01EFBA3
:103F50005FEA00092BD0B9F1800F04D2014671A0AD
:103F6000FFF702FF18BB26F81490641CD3E77A19F8
:103F7000C8F80020202801D2042516E0002514E00E
:103F800006EB440030F8020C20280DD02E280BD070
:103F90006CB1002026F814000B222021DAF818005A
:103FA00001F0A1FE002706E0641E002CE8D10620E7
:103FB000BDE8F88F7F1C36F817002028FAD02E288D
:103FC000F8D01FB145F0030500E0641E2CB106EBEC
:103FD000440030F8020C2E28F7D1002081464FF023
:103FE000080B009036F8170007F101075FEA000898
:103FF00024D0B8F1200F04D0B8F12E0F04D1A7427D
:1040000002D045F00305EDE70098584501D2A742DC
:104010001AD1BBF10B0F0FD0A74201D045F0030519
:104020000CD84FF0080000904FEA896027464FF007
:104030000B0B4FEA1069D5E745F00305DAF81800D5
:104040000178E52949D04AE04046B8F1800F07D30E
:1040500001F0C2FA002101F099FA804645F002050C
:10406000B8F1FF0F13D90099ABF10100814204D3DD
:1040700045F00305CDF800B0B4E7DAF81820009851
:104080004FEA182111540098401C00901CE0B8F130
:10409000000F04D0014626A0FFF766FE20B14FF0C6
:1040A0005F0845F003050FE0A8F14100192802D888
:1040B00049F0020908E0A8F16100192804D841304C
:1040C00049F001091FFA80F8DAF81820009902F87F
:1040D00001800098401C009084E705210170BBF12D
:1040E000080F03D14FEA89604FEA1069C9F38100D4
:1040F000032803D06FEA0901890701D145F00205C1
:10410000A90709D409F00301012901D145F01005DF
:10411000012801D145F00805DAF81800C572002021
:1041200046E70000222A3A3C3E3F7C7F0000000028
:104130002B2C3B3D5B5D0000401E022815D20C4B32
:1041400000EB400203EB82014889B0F5807F05D087
:1041500008B1401E80B2488110B104E00020FAE7A7
:10416000002043F822000020704702207047000022
:10417000484400202DE9F14F82B00021029800F060
:1041800087FA00287AD1029DFF2005F580554FF669
:10419000FF7A00908146A5F824A02969286801F0DB
:1041A000A9FD06000DD16C69207848B1E17AE528B7
:1041B00001F03F016DD00A0704D50F2969D107E04E
:1041C000042671E00F2903D0B9F1000F4AD04FE067
:1041D000296A89B3420606D5627B009220F040002E
:1041E000EA888146AA84484535D1627B009882429C
:1041F00031D101912078A04620F04000401E00EB14
:1042000080010027DFF8A8B001EBC006012400BF41
:104210001BF8071001EB0800008874B101F0DCF90D
:104220000446FF2E17D2019830F81600761C01F0D4
:10423000D3F9A0420FD102E02FE050450BD17F1CF3
:104240000D2FE5D398F80000400608D53CB1019841
:1042500030F8160018B1FF2000F0FF091DE0A9F1A9
:104260000100F9E7204601F07BFE009988421BD04F
:10427000A869C17AC9070CD10A2102E015E0491EDC
:1042800006D314F8012B10F8013BD21AF7D000E046
:1042900052B14FF0FF09A5F824A00021029800F0C8
:1042A00009F806003FF479AF3046BDE8FE8F000004
:1042B000806100082DE9F04100F580540F46E68842
:1042C000761C3004000C38D0216991B3206800F5C9
:1042D000805253895B09B6FBF3F503FB1563002B92
:1042E00067D1491C2161E16821B3538992785B0948
:1042F000B6FBF3F3521E13425BD101F03DFB0546C2
:1043000001281FD9681C39D0206841F214010958CE
:10431000A94248D86FB1E168FFF799FD05000FD0B9
:10432000012D0FD0681C29D0206801F07AFE28BB2F
:104330000AE002E01089B0423BD80420BDE8F081D9
:104340000720FBE70220F9E741F20A0120680A5A38
:10435000002101F0C8FC29462068FFF76AFD2168AA
:10436000002701F580514FF00108C8620FE000BF3F
:1043700080F80480206801F054FE08B10120DDE7D8
:10438000206800F58050C16A491C7F1CC16220680A
:1043900000F580508178B942EAD8216801F5805152
:1043A000C96AC91BC162E56029462068FFF741FD63
:1043B0002061E68041F20A012068095A4909B6FBEA
:1043C000F1F201FB126100EB411060610020B5E7E2
:1043D0002DE9F35FFF248346274604264FF6FF7836
:1043E0004FF0000900F5805567E0286801F082FC75
:1043F000060066D16869017881B1C27AE52902F0C8
:104400003F0209D02E2907D022F02003082B07D025
:10441000B446019B9C4506D0FF2440E0042650E0B2
:104420004FF0010CF5E70F2A01D0ACBB3EE04A0685
:1044300005D5477B21F04001EA880C46AA84A142B9
:104440002BD1417BB94228D10178DFF880A001F05F
:104450003F01491E01EB810202EBC1010022D5F8A8
:1044600020C001261AF8023003441B8836B1FF2908
:1044700013D22CF811301E46491C01E043450CD1E3
:10448000521C0D2AEED30078400603D5FF2904D232
:104490002CF81190641E01E00CE0FF24E4B200212E
:1044A0005846FFF707FF060007D00AE001F058FD65
:1044B000B84208D0A5F8248005E02969002994D1E4
:1044C0000EB1C5F810903046BDE8FC9F8061000831
:1044D0002DE9F14F84B00C22049C684604F5805409
:1044E000A769266A394601F0F5FB9DF80B00C00765
:1044F00018D00020F872012520622B46324669460A
:10450000384601F0F3F90498FFF734FE10B96D1C3A
:10451000642DF2D3642D0BD004280AD19DF80B0032
:10452000F87226629DF80B0080070FD5002004E08A
:10453000072005B0BDE8F08F401C36F810100029A8
:10454000FAD10D211930B0FBF1F600E00126049DEF
:104550000021284600F09CF8A8B94FF0000805F5A6
:1045600080573969386801F0C5FB60B9786900780F
:10457000E5280BD050B14FF0000801212846FFF785
:1045800099FE0028EDD0042812D012E008F10108AD
:104590003046B045F1D1461E5FEA060A59D0E1889F
:1045A0000498A1EB0A0100F073F8050003D06BE05A
:1045B0000720054668E0A06901F0D2FC039021695C
:1045C000206801F097FB05005ED16169D4F8209066
:1045D000039848730F20C8720020087388760AF089
:1045E000FF0BC876ABF1010000EB800202EBC005C7
:1045F00000234FF6FF7E254E4A1C01E0604503D0A4
:1046000039F81500F4466D1CF75CC85516F80380A0
:10461000070A08F8027000B960465B1C0D2BEDD349
:10462000704502D039F8150008B94BF0400B81F8FD
:1046300000B02168012001F5805108710021049823
:10464000FFF738FE05001FD1AAF101005FEA000A5A
:10465000B5D12169206801F04DFB050014D120225D
:104660000021606901F03FFBD4E905010B2201F054
:1046700031FBA0696169C07A00F0180008732168F5
:10468000012001F580510871284652E78061000839
:1046900070B500F580540D46E180A368012B42D02F
:1046A000206800F58050416999423CD923B90178CE
:1046B000032906D1436A23B1418980784E094643D4
:1046C00012E00189A9422ED9406A13E001F054F9A1
:1046D0000346401C25D0022B25D3206800F58050CE
:1046E000406998421FD9AD1B2068B5421946EDD2EA
:1046F000FFF79FFBE360B0B121680A4601F58051E6
:104700004B895B09B5FBF3F31844206148894009E4
:10471000B5FBF0F100FB115002EB4010606100208E
:1047200070BD012070BD022070BD0000084910B5A9
:104730000B5C002253B901220A540A1801EB8000D5
:10474000127B40680168104688470246104610BD3B
:104750006044002030B4054C231804EB80001B7B20
:10476000406804691846A44630BC60476044002095
:1047700030B4054D2C1805EB8000247B406885681B
:104780002046AC4630BC604760440020044A111803
:1047900002EB8000097B4068426808461047000031
:1047A0006044002030B4054D2C1805EB8000247BBC
:1047B0004068C5682046AC4630BC60476044002075
:1047C00010B5044600F0AEFD00280DD1204601F0E2
:1047D00051FC002808D104F58054A06AFFF7ACFC16
:1047E000002801D10021216010BD10B5044601F060
:1047F00041FC00280AD104F58054E16921B1084642
:10480000FFF79AFC002801D10021216010BD2DE99D
:10481000F74F14468B4600226946204600F0EEFE14
:10482000D4F800A05FEA00084FD10AF58054D4E91B
:104830000407B91E884202D8CBF8000045E094F87E
:1048400000900025B9F1010F01D0266A16E002267A
:104850003146504601F090F8411C03D0012803D0A6
:1048600028B105E0012000E00220804626E06D1C12
:104870006069761C8642EBD320E049B93146761C4C
:10488000504601F037FA5FEA000817D161895046B7
:10489000B9F1020F07D00278D0F8013042EA0322C2
:1048A000120106D006E0028802B96D1C801C891E28
:1048B00002E06D1C001D091F7F1EDED1256160799D
:1048C00040F001006071CBF800504046BDE8FE8F1B
:1048D0002DE9F74F90B015461198012803D9132000
:1048E00013B0BDE8F08F10A801F01EF9002801DA1E
:1048F0000B20F5E7FB4951F8204064B104F58059DD
:10490000002289F80020C0B20390FFF70FFFC10713
:1049100003D00320E4E70C20E2E7400701D50A209A
:10492000DEE741F20A00221802210398FFF712FF86
:10493000002875D1B9F80A00B0F5805F70D8B0F5DD
:10494000007F6DD308AA01210398FFF703FF002819
:10495000EFD108988028F4D3119909B1002100E023
:104960003F218846A0EB0801681E0542089100D14E
:10497000A5B9B9F80A004FF4FA62400AB2FBF0F0A8
:10498000B1FBF0F20020D84B00E0401C33F810508F
:104990009542FAD8D44A163232F81050B5F5007F55
:1049A00003D3B9F80A00B5FBF0F585B1802D00D925
:1049B0008025B1FBF5F0012640F6F672904200D357
:1049C00002264FF6F672904203D3032629E0012512
:1049D000EFE7032E25D0012E2FD0400010F1040068
:1049E000B9F80A20401E1044B0FBF2F74FF48040A3
:1049F000B0FBF2F04FF0010A0D9008EB0A0B0D9A94
:104A00000BEB0700104442190B90A2EB0800884200
:104A100049D809AA03210398FFF79CFEC0B912E008
:104A200007E1B9F80A20072303EB80001044B0FB2C
:104A3000F2F74FF0200A0020DEE700EB4000401CB8
:104A40004008C01CCCE7099810B1B0F5004F01D95F
:104A50000120099009990B980844401E491E88437B
:104A60000B99401A0990032E10D007440898A0EB28
:104A70000A01CA1B0D99511AB1FBF5F10B91022ED7
:104A800007D0032E0AD0012E15D019E082448344AA
:104A9000ECE740F6F672914205D311E008464FF676
:104AA000F671884201D20E201AE70C20029011986C
:104AB00068B1F02045E0B0F5803F06D20120F5E76F
:104AC000B0F5803F01D20420F0E70620EEE7B9F808
:104AD0000A200021204601F006F904F5DF700121CB
:104AE000417081700021C170029A0271FE224271F0
:104AF000089B08EB030243F6C163B2FBF3F23F23CA
:104B000043EA920C099280F806C0C27103724172A6
:104B10008172C172089901730A0A42730A0C827386
:104B2000090EC173552084F8FE01AA2084F8FF0104
:104B30000123002221460398FFF734FE002878D194
:104B4000F8200290B9F80A200021204601F0CBF8A5
:104B50000B2266A1204601F0BDF8B9F80A00E07208
:104B6000000A2073657384F80EA04FEA1A20E073E0
:104B700001202074032E0BD040026074000AA07440
:104B80000898B0F5803F05D2E074000A20750CE06B
:104B90000020F2E784F82000010A84F82110010CBB
:104BA00084F82210000E84F82300029860753F20DC
:104BB0002076002060764FF0FF0A84F81AA0E07695
:104BC00084F81C804FEA182060774FEA1840A077DD
:104BD0004FEA1860E07700F042FF80212922099017
:104BE000032E27D084F82700030A84F82830030C0A
:104BF00084F82930000E84F82A00A775380AE07579
:104C000084F8241084F8262013223BA104F12B0001
:104C100001F060F8552084F8FE01AA2084F8FF0115
:104C20000123424621460398FFF7BCFD002800D12E
:104C300033E0DBE084F84300030A84F84430030CDB
:104C400084F84530000E84F8460084F82470380A51
:104C500084F82500380C84F82600380E84F82700E4
:104C6000022084F82C00002084F82D0084F82E0007
:104C700084F82F00012384F8303084F831000623B3
:104C800084F8323084F8330084F8401084F84220ED
:104C900013221EA104F14700BAE7032E06D1012317
:104CA00008F1060221460398FFF77CFDB9F80A20B7
:104CB0000021204601F017F802980990032E31D008
:104CC000012E2DD06FF0FF01014309912170099849
:104CD000000A60700998000CA0700998000EE0703E
:104CE0003DE00000400000208E610008EBFE904D8A
:104CF00053444F53352E30004E4F204E414D4520EA
:104D00002020204641542020202020004E4F204EBD
:104D1000414D4520202020464154333220202000A0
:104D20004A49D1E760F0FF00099020700998000A15
:104D300060700998000CA0700998000EE07084F86B
:104D400004A084F805A084F806A084F807A084F8DD
:104D500008A084F809A084F80AA00F20E0725A463F
:104D60000BF1010A012321460398FFF71BFDE8BB65
:104D7000B9F80A200021204600F0B5FF01200AE022
:104D800052460AF1010A012321460398FFF70AFD62
:104D900060BB0998401C0990B842F1D3032E00D0A3
:104DA0000D9D52460AF1010A012321460398FFF79F
:104DB000F9FCD8B96D1EF4D1032E3CD152202070DD
:104DC00060706120A0704121E170722284F8E421BA
:104DD00084F8E52184F8E61184F8E7010B98401E79
:104DE00084F8E801010A84F8E91100E02BE0010CE5
:104DF00084F8EA11000E84F8EB01022084F8EC013B
:104E0000002084F8ED0184F8EE0184F8EF015520CC
:104E100084F8FE01AA2084F8FF01012308F10102B1
:104E200021460398FFF7BEFC012308F10702214643
:104E30000398FFF7B7FC002211460398FFF78AFC9E
:104E400000283FF456AD01204AE5000000FFFF00B6
:104E50002DE9F74181B0904602980090684600F035
:104E600063FE040003D50B2004B0BDE8F081104EB2
:104E7000002756F824502DB12846FEF7B1FF05F55E
:104E800080552F700198002803D000BF4FF4805147
:104E90000F5446F8240002D0B8F1010F01D00020D1
:104EA000E2E7002202A901A800F0A8FBDCE700006D
:104EB000400000202DE9F74FADF5925D98B100F567
:104EC00080564FF0000802F01F0741F2442127F0FE
:104ED000010269440DF58050C6F8008000F08EFB99
:104EE000040007D0DAE009200DF5137D0DF5805D93
:104EF000BDE8F08F41F228210DF5805069448161B1
:104F000000F128010162EB46D0F84412584600F047
:104F1000ABFC04000DF5805045690BD11DB178083C
:104F200003D0012102E0062404E000215846FEF7E8
:104F300023FF044617F01C0F74D04FF0010AE4B1B0
:104F4000042C13D10020574902E0401C022805D24E
:104F500000EB400251F82220002AF6D1022803D0AB
:104F60005846FFF7B5FA00E0122004460DF58050D0
:104F700047F00807456954B190E0E87A10F0110F46
:104F800001D007248AE0780701D5082486E0380795
:104F900056D500F064FDA873010AE973010C297469
:104FA000000E687485F80B8085F81C8085F81D80DC
:104FB00085F81E800DF5805085F81F800068294611
:104FC00000F01CFE81460021284600F0C1FF0DF5CF
:104FD0008050B9F1000F006800F5805080F804A0FF
:104FE0002CD00DF580504946006800F58050D0F86F
:104FF0002CA00DF58050006800F027FF04004DD173
:105000000DF58050A9F10101006800F58050C160E4
:105010000DF580505146006800F06CFE04000BD086
:105020003CE0FFE7D4BBE87AC10601D5042435E0B3
:10503000B90701D5C007A4D1380701D547F020072B
:105040000DF58050006800F58050C06AC6E907057C
:10505000780801D0012100E00021584600F082FDCF
:10506000B062E8B1B7710DF5805086F80780474609
:105070000068294600F0C2FD3061287FD5F81D1078
:1050800040EA0120C6E90270B7610DF580507762F1
:105090000068306000F58050C088B080204623E76B
:1050A0000224FBE748440020F3B5ADF5057D06007A
:1050B0000BD0002286A980A800F0A0FA05004FF0CE
:1050C000000706F5805404D033E009200DF5077D74
:1050D000F0BD8098206081A8A061C4F820D030463F
:1050E000869900F0C1FB050013D1616931B1C87A1E
:1050F000C0061DD5809800F081FDA0608098002139
:1051000000F58050C088A0803046FFF7C1FA050046
:1051100002D0042D0CD00CE0A06838B1002130463C
:1051200000F020FDE06128B9122502E0E76101E00E
:10513000052527602846C9E72DE9F04F884687B046
:105140000021994615468346196000F093FF002818
:1051500012D10BF58054E07900280DD1A079C00759
:1051600009D0D4E90201081A01274FF0020A85424A
:1051700000D90546A2E0072007B0BDE8F08F2068FF
:10518000A16800F580535E89B1FBF6F206FB1212AE
:10519000002A73D1B1FBF6F29B785B1E1A4012F025
:1051A000FF0610D129B1626A2AB15846FEF72AFEDD
:1051B00004E0206902E0616900F0DEFB02281FD3F1
:1051C000411C55D0606161692068FEF732FEB8B1BC
:1051D00030440090206800F580504189B5FBF1F122
:1051E000039151B3721881788A4201D9891B0391C6
:1051F00040784146039B009AFFF7BAFAC0BB03E030
:1052000084F807A00220B7E7A07940060ED5A1696F
:105210000098081A0399884208D2216801F5805144
:105220004A89594600FB028000F054FD206800F5D1
:10523000805046890398464336E0A26900998A4225
:105240001AD0A179490609D5407801235946FFF7BC
:10525000A9FA68B9A07920F04000A0712068012364
:1052600000F5805059464078009AFFF781FA18B14E
:10527000E771012080E701E00098A0612068A16843
:1052800000F580504089B1FBF0F200FB1212861A43
:10529000AE4200D92E46B1FBF0F200FB1211594488
:1052A0003246404600F016FDA068B0443044A0608D
:1052B000D9F800008119AD1BC9F80010002D7FF44A
:1052C0005EAF002058E7F0B5ADF5037D0F4605460B
:1052D00000F0D0FE00281BD1EFB105F5805480A866
:1052E000A061C4F820D000212846FFF771F80026FD
:1052F000042815D000280BD13946284600F0B1FB10
:1053000000212846FEF7D6FF042801D1002026619F
:105310000DF5037DF0BD00212846FFF7B9F9F7E749
:105320002661E9E770B5054600F0A4FE002811D11A
:1053300005F58054A1798A060CD548060FD520685A
:10534000012300F5805029464078A269FFF72AFA28
:1053500008B1012070BDA07920F04000A071E16982
:10536000206800F0C7FC0028F4D1256AE87A40F0F4
:105370002000E872207B2877A089000A6877E0681F
:10538000000CA877E068000EE8772846216900F055
:10539000DFFD00F064FBA875010AE975010C2976B0
:1053A000000E68760020A874E874A079012120F02E
:1053B0002000A071206800F5805001712068BDE8D0
:1053C000704000F0DABD2DE9FC5F88460021994667
:1053D00015468346196000F04DFE002808D10BF5F4
:1053E0008054E079002803D1A079800702D40720F7
:1053F000BDE8FC9FA068012741194FF0020A8142D5
:105400007AD3B5E02068A168024600F58050438950
:10541000B1FBF3F603FB1616002E6ED1B1FBF3F3CE
:105420008078401E034013F0FF0618D129B1606A4E
:1054300038B15846FEF7E6FC07E0206938B900218C
:1054400000E061691046FEF702FD002854D00128F3
:1054500033D0411C62D06061216901B92061A0791B
:1054600040060DD52068012300F58050594640784C
:10547000A269FFF797F9F0BBA07920F04000A07176
:1054800061692068FEF7D5FCB8B13044019020680E
:1054900000F580504189B5FBF1F1009171B37218AC
:1054A00081788A4201D9891B0091DDE90032407878
:1054B0004146FFF777F9F0B903E084F807A002202E
:1054C00096E7A1690198081A009988420CD22168D0
:1054D00001F580514A8900FB0281584600F0FAFB31
:1054E000A07920F04000A071206800F58050468926
:1054F0000098464332E011E03DE014E0FFE7A16987
:10550000019A91420DD0D4E90212914209D2407819
:1055100001235946019AFFF72BF910B1E7710120D9
:1055200066E70198A0612068A16800F58050408975
:10553000B1FBF0F200FB1212861AAE4200D92E46E1
:10554000B1FBF0F200FB121101EB0B0032464146B9
:1055500000F0C0FBA07940F04000A071A068B0440A
:105560003044A060D9F80000AD1B3044C9F80000F9
:10557000002D7FF447AFD4E90201884200D9E060F2
:10558000A07940F02000A071002031E770B580289C
:105590001BD345F2205309B10D4D00E00D4D002104
:1055A00010245A1A02EBD27201EB620235F8226023
:1055B000864206D001D2114600E01346641EF0D1A7
:1055C00004E01CB105EB8200408870BD002070BD76
:1055D0003EB60108BA6100080021064B00E0491CF4
:1055E00033F81120002A04D08242F8D1024830F862
:1055F00011007047C20A0308A20C03082DE9FF5FDF
:105600004FF0000B0546C0F800B01746084600F002
:105610008BFA060003D50B2004B0BDE8F09F8F483D
:1056200050F826409CB12C6004F58055287820B1B4
:105630006878FFF7ABF8C1070BD085F800B0F0B27F
:105640006870FFF773F8C10708D00320E4E70C2067
:10565000E2E70FB1400704D40020DDE71FB14007A7
:1056600001D50A20D8E741F20A01621868780221C0
:10567000FFF770F878BB6889B0F5007F34D3B0F5D8
:10568000805F31D8002631462046FEF73DFB0128D9
:1056900026D100204FEA0D0204EB001191F8C2312F
:1056A00001F5DF712BB10B7AD1F8091043EA012122
:1056B00000E0002142F82010401C0428ECD3002711
:1056C0004FEA020858F8276036B131462046FEF707
:1056D0001BFB10B90AE007E002207F1C042FF1D366
:1056E000032801D0F0BB01E0012095E7B4F80B00DE
:1056F000B5F80AC060455FD1E18A29B994F8240061
:10570000D4F8251040EA0121A961207C8A46E8707E
:10571000012801D002284FD100FB01F9607BA8705D
:1057200000B3411E084247D1B4F811104FEA5C1291
:10573000B1FBF2F302FB131329819BB9B4F8137088
:105740002FB994F82030D4F8217043EA0727E38971
:1057500043B1B1FBF2F803EB0902424497422BD369
:10576000BF1A00E028E0B7FBF0F028B3012740F6AD
:10577000F678404500D302274FF6F678404500D32F
:105780000327801C3244AA6233446861C5E9076379
:10579000032F13D081B103EB09016962022F18D0E6
:1057A00000F0010100EB400001EB5000401E60449E
:1057B000B0FBFCF151450ED90D202DE70029FBD19E
:1057C00094F82C10D4F82D20800041EA022169625F
:1057D000ECE74000EAE74FF0FF302861E860802006
:1057E0006871032F2ED1208E01282BD12046711CE9
:1057F00000F080FA30BB85F805B0B4F8FE01A0F5E2
:105800002A4155391ED12078D4F8011040EA0120F0
:105810001349884216D194F8E401D4F8E51140EA1E
:105820000120104988420DD194F8E801D4F8E9111B
:1058300040EA0120286194F8EC01D4F8ED1140EA27
:105840000120E86005492F70091F0888401C088066
:10585000E8802046FEF7C4FAFEE600004000002083
:10586000525261417272416173B5054601980178E7
:105870002F2901D05C2901D1401C019005F58054ED
:105880000026A66001980078202805D2002128462D
:10589000FEF7FEFE66617CBD01A92846FEF72AFBE5
:1058A0000028F8D12846FEF765FCA169C97A28B11D
:1058B0000428F0D14907EED405207CBD4907FCD46B
:1058C0006169C87AC006F7D5206800F097F9A06032
:1058D000E2E7000013B54FF47A73012269460248EB
:1058E000FCF701FC00981CBDE44300207CB5164683
:1058F0001C4605460B2200F0EDF9052C11D91D4A76
:105900000CE00021B61C2346044663F35F04400804
:10591000E30300D55440491C1029F4D330880028F3
:10592000EFD107214FEA0D0304F00F003030392882
:1059300000D9C01D5854491E2409F5D17E200022EB
:1059400058544C1E06E081387D2802D8A24206D069
:10595000521C521C8A4202D2A85C2028F3D108298A
:1059600002D2585C491C00E02020A854521C082A8E
:10597000F5D37CBD211001002DE9F0470D46074607
:1059800002290DD307F580546069A84208D9207810
:105990004FF0FF36012807D0022832D0032844D028
:1059A00001263046BDE8F087618905EB5508B8FB54
:1059B000F1F0216A0144384600F09CF90028F0D14A
:1059C0006189B8FBF1F201FB128008F1010817F8B8
:1059D0000090B8FBF1F0216A0144384600F08AF9E2
:1059E0000028DED16189B8FBF1F201FB1280395C3D
:1059F00049EA0120E90701D00609D2E7C0F30B0606
:105A0000CFE76089216A4008B5FBF0F001443846D1
:105A100000F070F90028C4D161896800B0FBF1F290
:105A200001FB120038440688BBE76089216A8008C0
:105A3000B5FBF0F00144384600F05CF90028B0D125
:105A40006189A800B0FBF1F201FB12003844017833
:105A5000D0F8010041EA002020F07046A1E70020C4
:105A600070472DE9F04100F580500C46026909317C
:105A700072B3002543692E265A5D6D1C202A19D069
:105A8000052A00D1E522092D01D101F8016BA2F10F
:105A90004107192F0CD81F7B092D02D34FF0100C92
:105AA00001E04FF0080C17EA0C0F01D02032D2B2FF
:105AB00001F8012B0B2DDFD3DA7A22721A7FD3F88B
:105AC0001D5042EA052222601A8BA280DA8AE28007
:105AD0004FF0000881F80080A669002E22D00169ED
